:020000040800F2
:1000000000280020C90B00086D0B0008730B0008C6
:10001000790B00087F0B0008850B0008000000002A
:100020000000000000000000000000008B0B000832
:10003000970B000800000000A30B0008AF0B00089E
:10004000110C0008110C0008110C0008110C00081C
:10005000110C0008110C0008110C0008110C00080C
:10006000110C0008110C0008110C0008110C0008FC
:10007000110C0008110C0008110C0008110C0008EC
:10008000110C0008110C0008110C0008110C0008DC
:10009000110C0008110C0008110C0008110C0008CC
:1000A000110C0008110C0008110C0008110C0008BC
:1000B000110C0008110C000800000000110C0008D1
:1000C000110C00080000000000000000110C0008E6
:1000D00000000000110C0008110C000800000000D6
:1000E000110C0008110C0008110C000800000000A1
:1000F0000000000000000000000000000000000000
:0C01000000000000000000005FF808F1A3
:10010C0010B5054C237833B9044B13B10448AFF345
:10011C0000800123237010BD0C00002000000000A3
:10012C00381A000808B5034B1BB103490348AFF359
:10013C00008008BD0000000010000020381A0008E4
:10014C0080B582B000AF78607B68092B00F28081AB
:10015C0001A252F823F000BF8D010008D501000860
:10016C001D02000865020008AD020008F502000837
:10017C003D03000885030008CD03000815040008A2
:10018C0000220121B44801F025F800220221B248D6
:10019C0001F020F800220421AF4801F01BF80022E6
:1001AC000821AD4801F016F800221021AA4801F0F0
:1001BC0011F800222021A84801F00CF8012240215E
:1001CC00A54801F007F843E101220121A24801F002
:1001DC0001F800220221A04800F0FCFF00220421BB
:1001EC009D4800F0F7FF012208219B4800F0F2FF28
:1001FC0001221021984800F0EDFF012220219648A1
:10020C0000F0E8FF01224021934800F0E3FF1FE1DA
:10021C0000220121904800F0DDFF002202218E48CF
:10022C0000F0D8FF012204218B4800F0D3FF0022FC
:10023C000821894800F0CEFF00221021864800F0EA
:10024C00C9FF01222021844800F0C4FF0022402174
:10025C00814800F0BFFFFBE0002201217E4800F046
:10026C00B9FF002202217C4800F0B4FF00220421D7
:10027C00794800F0AFFF00220821774800F0AAFF70
:10028C0001221021744800F0A5FF012220217248A0
:10029C0000F0A0FF002240216F4800F09BFFD7E048
:1002AC00012201216C4800F095FF002202216A48CE
:1002BC0000F090FF00220421674800F08BFF012220
:1002CC000821654800F086FF01221021624800F0E9
:1002DC0081FF00222021604800F07CFF0022402199
:1002EC005D4800F077FFB3E0002201215A4800F08E
:1002FC0071FF01220221584800F06CFF00220421FA
:10030C00554800F067FF00220821534800F062FFB7
:10031C0001221021504800F05DFF002220214E48A0
:10032C0000F058FF002240214B4800F053FF8FE0B3
:10033C0000220121484800F04DFF012202214648CD
:10034C0000F048FF00220421434800F043FF002244
:10035C000821414800F03EFF002210213E4800F0E9
:10036C0039FF002220213C4800F034FF00224021BC
:10037C00394800F02FFF6BE000220121364800F0D5
:10038C0029FF00220221344800F024FF002204211E
:10039C00314800F01FFF012208212F4800F01AFFFE
:1003AC00012210212C4800F015FF012220212A489F
:1003BC0000F010FF01224021274800F00BFF47E01E
:1003CC0000220121244800F005FF002202212248CE
:1003DC0000F000FF002204211F4800F0FBFE002269
:1003EC0008211D4800F0F6FE002210211A4800F0EA
:1003FC00F1FE00222021184800F0ECFE00224021E2
:10040C00154800F0E7FE23E000220121124800F01D
:10041C00E1FE00220221104800F0DCFE0022042143
:10042C000D4800F0D7FE002208210B4800F0D2FE48
:10043C0001221021084800F0CDFE002220210648A0
:10044C0000F0C8FE00224021034800F0C3FE00BFAC
:10045C0000BF0837BD4680BD000C014080B582B09E
:10046C0000AF78607B68092B00F2BC8101A252F8C6
:10047C0023F000BFA9040008FD0400085105000882
:10048C00A5050008F90500084D060008A10600089E
:10049C00F5060008490700089D0700080022802186
:1004AC00D24800F097FE00224FF48071CF4800F044
:1004BC0091FE00224FF40071CC4800F08BFE00221C
:1004CC004FF48061C94800F085FE00224FF40061B2
:1004DC00C64800F07FFE00224FF48051C34800F064
:1004EC0079FE01224FF40051C04800F073FE79E10F
:1004FC0001228021BD4800F06DFE00224FF4807176
:10050C00BA4800F067FE00224FF40071B74800F0C3
:10051C0061FE01224FF48061B44800F05BFE0122C1
:10052C004FF40061B14800F055FE01224FF48051A8
:10053C00AE4800F04FFE01224FF40051AB4800F0E2
:10054C0049FE4FE100228021A84800F043FE002222
:10055C004FF48071A54800F03DFE01224FF400716C
:10056C00A24800F037FE00224FF480619F4800F053
:10057C0031FE00224FF400619C4800F02BFE01225A
:10058C004FF48051994800F025FE00224FF40051A1
:10059C00964800F01FFE25E100228021934800F0D0
:1005AC0019FE00224FF48071904800F013FE0022D7
:1005BC004FF400718D4800F00DFE00224FF4806165
:1005CC008A4800F007FE01224FF40061874800F0D2
:1005DC0001FE01224FF48051844800F0FBFD002203
:1005EC004FF40051814800F0F5FDFBE00122802121
:1005FC007E4800F0EFFD00224FF480717B4800F044
:10060C00E9FD00224FF40071784800F0E3FD01226F
:10061C004FF48061754800F0DDFD01224FF400615C
:10062C00724800F0D7FD00224FF480516F4800F063
:10063C00D1FD00224FF400516C4800F0CBFDD1E00D
:10064C0000228021694800F0C5FD01224FF4807121
:10065C00664800F0BFFD00224FF40071634800F0C3
:10066C00B9FD00224FF48061604800F0B3FD012217
:10067C004FF400615D4800F0ADFD00224FF4805155
:10068C005A4800F0A7FD00224FF40051574800F0E3
:10069C00A1FDA7E000228021544800F09BFD01221F
:1006AC004FF48071514800F095FD00224FF4007119
:1006BC004E4800F08FFD00224FF480614B4800F053
:1006CC0089FD00224FF40061484800F083FD0022B0
:1006DC004FF48051454800F07DFD00224FF400514D
:1006EC00424800F077FD7DE0002280213F4800F079
:1006FC0071FD00224FF480713C4800F06BFD00222C
:10070C004FF40071394800F065FD01224FF480610F
:10071C00364800F05FFD01224FF40061334800F0D1
:10072C0059FD01224FF48051304800F053FD012255
:10073C004FF400512D4800F04DFD53E00022802174
:10074C002A4800F047FD00224FF48071274800F042
:10075C0041FD00224FF40071244800F03BFD0022C3
:10076C004FF48061214800F035FD00224FF4006108
:10077C001E4800F02FFD00224FF480511B4800F062
:10078C0029FD00224FF40051184800F023FD29E008
:10079C0000228021154800F01DFD00224FF48071CD
:1007AC00124800F017FD00224FF400710F4800F0C2
:1007BC0011FD00224FF480610C4800F00BFD01226A
:1007CC004FF40061094800F005FD00224FF4805100
:1007DC00064800F0FFFC00224FF40051034800F0E3
:1007EC00F9FC00BF00BF0837BD4680BD000C0140BE
:1007FC0080B58CB000AF00F007FA00F0F7F800F00D
:10080C0031F901220821754800F0E4FC0122102185
:10081C00724800F0DFFC00222021704800F0DAFC66
:10082C00002240216D4800F0D5FC012280216B484C
:10083C0000F0D0FC01224FF48071684800F0CAFC33
:10084C001423FB62664A07F1100307CA83E807000A
:10085C00644A3B1D07CA83E807000023BB620023E0
:10086C007B62BB6A9B0030333B4453F8203C3B62B9
:10087C007B6A9B0030333B4453F82C3CFB61FB6A96
:10088C00002B27DC1423FB620023BB6200237B625A
:10089C00BB6A9B0030333B4453F8203C3B627B6A81
:1008AC009B0030333B4453F82C3CFB610122082164
:1008BC004A4800F08FFC00222021484800F08AFCB6
:1008CC0001228021454800F085FC0022402143484C
:1008DC0000F080FC3B6A002B26DCBB6A0133BB6258
:1008EC00BB6A9B0030333B4453F8203C3B62BB6AF1
:1008FC00012B03D0BB6A022B0BD016E00122202166
:10090C00364800F067FC00221021344800F062FCED
:10091C000BE001221021314800F05CFC0022082180
:10092C002E4800F057FC00E000BFFB69002B28DCD0
:10093C007B6A01337B627B6A9B0030333B4453F808
:10094C002C3CFB617B6A012B03D07B6A022B0CD005
:10095C0018E001224021214800F03CFC00224FF419
:10096C0080711E4800F036FC0CE001224FF48071BF
:10097C001A4800F02FFC00228021184800F02AFCB5
:10098C0000E000BF3A6A184B83FB02139910D3178F
:10099C00C91A0B469B000B445B00D11A0846FFF7A3
:1009AC00CFFBFA69104B83FB02139910D317C91AAA
:1009BC000B469B000B445B00D11A0846FFF74EFD1B
:1009CC00FB6A013BFB623B6A013B3B62FB69013BFF
:1009DC00FB614FF47A7000F079F950E700080140A0
:1009EC00501A00085C1A00086766666680B590B0FD
:1009FC0000AF07F1180328220021184601F00EF869
:100A0C003B1D00221A605A609A60DA601A61022358
:100A1C00BB610123BB621023FB6200237B6307F1E4
:100A2C001803184600F0EEFB0346002B01D000F033
:100A3C006FF80F237B600023BB600023FB60002357
:100A4C003B6100237B613B1D0021184600F05CFEDE
:100A5C000346002B01D000F05BF800BF4037BD46C9
:100A6C0080BD000080B586B000AF07F108030022FE
:100A7C001A605A609A60DA60224B9B69214A43F0F3
:100A8C00040393611F4B9B6903F004037B607B6839
:100A9C001C4B9B691B4A43F008039361194B9B69E0
:100AAC0003F008033B603B6800224FF4FC711648CE
:100ABC0000F090FB002243F6FF71144800F08AFB13
:100ACC004FF4FC73BB600123FB6000233B610223EA
:100ADC007B6107F1080319460B4800F0FFF943F658
:100AEC00FF73BB600123FB6000233B6102237B612E
:100AFC0007F108031946054800F0F0F900BF183754
:100B0C00BD4680BD0010024000080140000C0140B1
:100B1C0080B400AF72B600BFFEE7000080B483B0B3
:100B2C0000AF0E4B9B690D4A43F0010393610B4BD5
:100B3C009B6903F001037B607B68084BDB69074A08
:100B4C0043F08053D361054BDB6903F080533B606A
:100B5C003B6800BF0C37BD4680BC7047001002409C
:100B6C0080B400AFFEE780B400AFFEE780B400AF06
:100B7C00FEE780B400AFFEE780B400AFFEE780B4C0
:100B8C0000AF00BFBD4680BC704780B400AF00BF53
:100B9C00BD4680BC704780B400AF00BFBD4680BC72
:100BAC00704780B500AF00F075F800BF80BD80B411
:100BBC0000AF00BFBD4680BC704700000C480D491B
:100BCC000D4A002302E0D458C4500433C4188C429C
:100BDC00F9D30A4A0A4C002301E013600432A24202
:100BEC00FBD3FFF7E4FF00F0F5FEFFF701FE7047C3
:100BFC00000000200C000020901A00080C000020BF
:100C0C002C000020FEE7000080B500AF084B1B68ED
:100C1C00074A43F010031360032000F02BF90F2058
:100C2C0000F008F8FFF77AFF0023184680BD00BFDC
:100C3C000020024080B582B000AF7860124B1A6879
:100C4C00124B1B7819464FF47A73B3FBF1F3B2FBDA
:100C5C00F3F3184600F035F90346002B01D00123BD
:100C6C000EE07B680F2B0AD8002279684FF0FF301A
:100C7C0000F00BF9064A7B681360002300E00123A7
:100C8C0018460837BD4680BD000000200800002033
:100C9C000400002080B400AF054B1B781A46054BAE
:100CAC001B681344034A136000BFBD4680BC7047E9
:100CBC00080000202800002080B400AF024B1B6805
:100CCC001846BD4680BC70472800002080B584B013
:100CDC0000AF7860FFF7F0FFB8607B68FB60FB68E3
:100CEC00B3F1FF3F05D00A4B1B781A46FB6813443F
:100CFC00FB6000BFFFF7E0FF0246BB68D31AFA683F
:100D0C009A42F7D800BF00BF1037BD4680BD00BF68
:100D1C000800002080B485B000AF78607B6803F0D9
:100D2C000703FB600C4BDB68BB60BA684FF6FF0334
:100D3C001340BB60FB681A02BB68134343F0BF63EC
:100D4C0043F40033BB60044ABB68D36000BF143764
:100D5C00BD4680BC704700BF00ED00E080B400AF22
:100D6C00044BDB681B0A03F007031846BD4680BC26
:100D7C00704700BF00ED00E080B483B000AF0346C5
:100D8C003960FB7197F90730002B0ADB3B68DAB24C
:100D9C000C4997F907301201D2B20B4483F80023A7
:100DAC000AE03B68DAB20849FB7903F00F03043B15
:100DBC001201D2B20B441A7600BF0C37BD4680BC70
:100DCC00704700BF00E100E000ED00E080B489B0A6
:100DDC0000AFF860B9607A60FB6803F00703FB6151
:100DEC00FB69C3F10703042B28BF0423BB61FB6918
:100DFC000433062B02D9FB69033B00E000237B6123
:100E0C004FF0FF32BB6902FA03F3DA43BB681A40B6
:100E1C007B699A404FF0FF317B6901FA03F3D943A8
:100E2C007B680B40134318462437BD4680BC704783
:100E3C0080B582B000AF78607B68013BB3F1807FF6
:100E4C0001D301230FE00A4A7B68013B53600F2159
:100E5C004FF0FF30FFF790FF054B00229A60044BD8
:100E6C0007221A60002318460837BD4680BD00BF14
:100E7C0010E000E080B582B000AF78607868FFF7D2
:100E8C0049FF00BF0837BD4680BD80B586B000AFB6
:100E9C000346B9607A60FB7300237B61FFF75EFF4A
:100EAC0078617A68B9687869FFF790FF024697F91C
:100EBC000F3011461846FFF75FFF00BF1837BD46CD
:100ECC0080BD80B582B000AF78607868FFF7B0FF66
:100EDC00034618460837BD4680BD000080B48BB071
:100EEC0000AF7860396000237B6200233B6261E1D4
:100EFC0001227B6A02FA03F3FB613B681B68FA6907
:100F0C001340BB61BA69FB699A4240F050813B685F
:100F1C005B68974A93425ED0954A934275D8954A3E
:100F2C00934258D0934A93426FD8934A934252D0EB
:100F3C00914A934269D8914A93424CD08F4A93423A
:100F4C0063D88F4A934246D08D4A93425DD8122B78
:100F5C002AD8122B59D801A252F823F0E30F00081B
:100F6C00BD0F0008CF0F0008111000081710000863
:100F7C0017100008171000081710000817100008A9
:100F8C001710000817100008171000081710000899
:100F9C001710000817100008171000081710000889
:100FAC00C50F0008D90F0008764A934213D02CE0E5
:100FBC003B68DB683B6229E03B68DB6804333B62DF
:100FCC0024E03B68DB6808333B621FE03B68DB686E
:100FDC000C333B621AE03B689B68002B02D1042364
:100FEC003B6213E03B689B68012B05D108233B62F5
:100FFC007B68FA691A6109E008233B627B68FA692D
:10100C005A6103E000233B6200E000BFBB69FF2B89
:10101C0001D87B6801E07B6804337B61BB69FF2BE3
:10102C0002D87B6A9B0002E07B6A083B9B003B6119
:10103C007B691A680F213B6901FA03F3DB431A4001
:10104C00396A3B6901FA03F31A437B691A603B68FE
:10105C005B6803F08053002B00F0A9804A4B9B691E
:10106C00494A43F001039361474B9B6903F0010329
:10107C00BB60BB68454A7B6A9B08023352F823303D
:10108C00FB607B6A03F003039B000F2202FA03F35D
:10109C00DB43FA681340FB607B683D4A93420DD0FA
:1010AC007B683C4A934207D07B683B4A934201D110
:1010BC00022304E0032302E0012300E000237A6A08
:1010CC0002F0030292009340FA681343FB602F492D
:1010DC007B6A9B080233FA6841F823203B685B6803
:1010EC0003F48033002B06D02C4B1A682B49BB69B8
:1010FC0013430B6006E0294B1A68BB69DB43274995
:10110C0013400B603B685B6803F40033002B06D084
:10111C00224B5A682149BB6913434B6006E01F4BB5
:10112C005A68BB69DB431D4913404B603B685B68E5
:10113C0003F48013002B06D0184B9A681749BB692F
:10114C0013438B6006E0154B9A68BB69DB4313496C
:10115C0013408B603B685B6803F40013002B1FD0BB
:10116C000E4BDA680D49BB691343CB601FE000BF1F
:10117C00000032100000311000002210000021107D
:10118C00000012100000111000100240000001407D
:10119C0000080140000C0140001001400004014017
:1011AC000B4BDA68BB69DB4309491340CB607B6AA4
:1011BC0001337B623B681A687B6A22FA03F3002BCB
:1011CC007FF496AE00BF00BF2C37BD4680BC704785
:1011DC000004014080B483B000AF78600B467B8084
:1011EC0013467B707B78002B03D07A887B681A615E
:1011FC0003E07B881A047B681A6100BF0C37BD467C
:10120C0080BC704780B586B000AF78607B68002BDF
:10121C0001D1012372E27B681B6803F00103002BF0
:10122C0000F08780924B5B6803F00C03042B0CD00E
:10123C008F4B5B6803F00C03082B12D18C4B5B6853
:10124C0003F48033B3F5803F0BD1894B1B6803F457
:10125C000033002B6CD07B685B68002B68D10123BA
:10126C004CE27B685B68B3F5803F06D1804B1B6812
:10127C007F4A43F4803313602EE07B685B68002B5D
:10128C000CD17B4B1B687A4A23F480331360784B68
:10129C001B68774A23F4802313601DE07B685B682E
:1012AC00B3F5A02F0CD1724B1B68714A43F4802309
:1012BC0013606F4B1B686E4A43F4803313600BE072
:1012CC006B4B1B686A4A23F480331360684B1B68B2
:1012DC00674A23F4802313607B685B68002B13D070
:1012EC00FFF7EAFC386108E0FFF7E6FC02463B69D1
:1012FC00D31A642B01D9032300E25D4B1B6803F462
:10130C000033002BF0D014E0FFF7D6FC386108E076
:10131C00FFF7D2FC02463B69D31A642B01D9032395
:10132C00ECE1534B1B6803F40033002BF0D100E0CD
:10133C0000BF7B681B6803F00203002B63D04C4B8F
:10134C005B6803F00C03002B0BD0494B5B6803F07C
:10135C000C03082B1CD1464B5B6803F48033002B29
:10136C0016D1434B1B6803F00203002B05D07B689E
:10137C001B69012B01D00123C0E13D4B1B6823F0FD
:10138C00F8027B685B69DB00394913430B603AE078
:10139C007B681B69002B20D0364B01221A60FFF7AB
:1013AC008BFC386108E0FFF787FC02463B69D31AD7
:1013BC00022B01D90323A1E12D4B1B6803F002037F
:1013CC00002BF0D02A4B1B6823F0F8027B685B697A
:1013DC00DB00274913430B6015E0264B00221A60F3
:1013EC00FFF76AFC386108E0FFF766FC02463B69D0
:1013FC00D31A022B01D9032380E11D4B1B6803F088
:10140C000203002BF0D17B681B6803F00803002B50
:10141C003AD07B689B69002B19D0174B01221A60BC
:10142C00FFF74AFC386108E0FFF746FC02463B69CF
:10143C00D31A022B01D9032360E10D4B5B6A03F035
:10144C000203002BF0D0012000F0A6FA1CE00A4B9E
:10145C0000221A60FFF730FC38610FE0FFF72CFC1C
:10146C0002463B69D31A022B08D9032346E100BF7D
:10147C00001002400000424280044242924B5B6AE0
:10148C0003F00203002BE9D17B681B6803F0040313
:10149C00002B00F0A6800023FB758B4BDB6903F05F
:1014AC008053002B0DD1884BDB69874A43F0805366
:1014BC00D361854BDB6903F08053BB60BB680123B0
:1014CC00FB75824B1B6803F48073002B18D17F4B88
:1014DC001B687E4A43F480731360FFF7EDFB3861A1
:1014EC0008E0FFF7E9FB02463B69D31A642B01D9EC
:1014FC00032303E1754B1B6803F48073002BF0D0BE
:10150C007B68DB68012B06D16F4B1B6A6E4A43F07C
:10151C00010313622DE07B68DB68002B0CD16A4B56
:10152C001B6A694A23F001031362674B1B6A664A04
:10153C0023F0040313621CE07B68DB68052B0CD1E1
:10154C00614B1B6A604A43F0040313625E4B1B6AD7
:10155C005D4A43F0010313620BE05B4B1B6A5A4A72
:10156C0023F001031362584B1B6A574A23F0040300
:10157C0013627B68DB68002B15D0FFF79DFB38618D
:10158C000AE0FFF799FB02463B69D31A41F2883215
:10159C00934201D90323B1E04B4B1B6A03F00203C6
:1015AC00002BEED014E0FFF787FB38610AE0FFF761
:1015BC0083FB02463B69D31A41F28832934201D92C
:1015CC0003239BE0404B1B6A03F00203002BEED17C
:1015DC00FB7D012B05D13C4BDB693B4A23F080534F
:1015EC00D3617B68DB69002B00F08780364B5B682E
:1015FC0003F00C03082B61D07B68DB69022B46D10E
:10160C00334B00221A60FFF757FB386108E0FFF7F5
:10161C0053FB02463B69D31A022B01D903236DE01D
:10162C00294B1B6803F00073002BF0D17B681B6AFD
:10163C00B3F5803F08D1244B5B6823F400327B6800
:10164C009B68214913434B601F4B5B6823F4741256
:10165C007B68196A7B685B6A0B431B4913434B60BD
:10166C001B4B01221A60FFF727FB386108E0FFF7DC
:10167C0023FB02463B69D31A022B01D903233DE01D
:10168C00114B1B6803F00073002BF0D035E0104BAE
:10169C0000221A60FFF710FB386108E0FFF70CFB23
:1016AC0002463B69D31A022B01D9032326E0064BD1
:1016BC001B6803F00073002BF0D11EE07B68DB6924
:1016CC00012B07D1012319E00010024000700040EB
:1016DC00600042420B4B5B68FB60FB6803F480329A
:1016EC007B681B6A9A4206D1FB6803F470127B6814
:1016FC005B6A9A4201D0012300E000231846183798
:10170C00BD4680BD0010024080B584B000AF78604B
:10171C0039607B68002B01D10123D0E06A4B1B6838
:10172C0003F007033A689A4210D9674B1B6823F001
:10173C00070265493B6813430B60634B1B6803F05E
:10174C0007033A689A4201D00123B8E07B681B6812
:10175C0003F00203002B20D07B681B6803F004030A
:10176C00002B05D0594B5B68584A43F4E063536037
:10177C007B681B6803F00803002B05D0534B5B6898
:10178C00524A43F460535360504B5B6823F0F002B1
:10179C007B689B684D4913434B607B681B6803F067
:1017AC000103002B40D07B685B68012B07D1474BB2
:1017BC001B6803F40033002B15D101237FE07B68F9
:1017CC005B68022B07D1414B1B6803F00073002BA5
:1017DC0009D1012373E03D4B1B6803F00203002B7E
:1017EC0001D101236BE0394B5B6823F003027B686A
:1017FC005B68364913434B60FFF75EFAF8600AE00A
:10180C00FFF75AFA0246FB68D31A41F28832934228
:10181C0001D9032353E02D4B5B6803F00C027B686A
:10182C005B689B009A42EBD1274B1B6803F00703C4
:10183C003A689A4210D2244B1B6823F007022249C3
:10184C003B6813430B60204B1B6803F007033A689B
:10185C009A4201D0012332E07B681B6803F0040339
:10186C00002B08D0194B5B6823F4E0627B68DB68C3
:10187C00164913434B607B681B6803F00803002B6D
:10188C0009D0124B5B6823F460527B681B69DB0048
:10189C000E4913434B6000F021F802460B4B5B687A
:1018AC001B0903F00F030A49CB5C22FA03F3094A24
:1018BC001360094B1B681846FFF7BCF90023184648
:1018CC001037BD4680BD00BF002002400010024012
:1018DC00781A0008000000200400002090B48AB0A0
:1018EC0000AF294B3C1D0FCB84E80F0040F20123C5
:1018FC003B800023FB610023BB6100237B62002340
:10190C007B6100233B62214B5B68FB61FB6903F04D
:10191C000C03042B02D0082B03D02BE01C4B3B6296
:10192C002BE0FB699B0C03F00F0328333B4413F8AB
:10193C00243C7B61FB6903F48033002B12D0134BE6
:10194C005B685B0C03F0010328333B4413F8283C21
:10195C00BB617B690E4A03FB02F2BB69B2FBF3F37A
:10196C007B6204E07B690B4A02FB03F37B627B6ABC
:10197C003B6202E0064B3B6200BF3B6A18462837CD
:10198C00BD4690BC704700BF681A000800100240AA
:10199C0000127A0000093D0080B485B000AF786079
:1019AC000A4B1B680A4AA2FB03235B0A7A6802FBF8
:1019BC0003F3FB6000BFFB685A1EFA60002BF9D1E1
:1019CC0000BF00BF1437BD4680BC7047000000202C
:1019DC00D34D621070B500260C4D0D4C641BA41039
:1019EC00A64209D100F022F800260A4D0A4C641BCD
:1019FC00A410A64205D170BD55F8043B984701369A
:101A0C00EEE755F8043B98470136F2E7881A0008D0
:101A1C00881A0008881A00088C1A00080346024429
:101A2C00934200D1704703F8011BF9E7F8B500BFEA
:101A3C00F8BC08BC9E467047F8B500BFF8BC08BCA3
:041A4C009E467047FB
:101A500008000000020000000A0000000A00000068
:101A60000800000002000000020304050607080940
:101A70000A0B0C0D0E0F10100000000000000000FB
:081A8000010203040607080936
:041A88003101000820
:041A8C000D01000840
:0C1A90000024F400100000000100000021
:0400000508000BC91B
:00000001FF
